:020000040800F2
:1000000058070020A1010008EF2500084D22000834
:10001000ED2500083F1200083B2700080000000003
:10002000000000000000000000000000F3250008B0
:100030000915000800000000F1250008F52500085A
:10004000BB010008BB010008BB010008BB010008A0
:10005000BB010008BB010008BB010008BB01000890
:10006000BB010008BB010008BB010008BB01000880
:10007000BB010008BB010008BB010008BB01000870
:10008000BB010008BB010008BB010008BB01000860
:10009000BB010008BB010008BB010008BB01000850
:1000A000BB010008BB010008BB010008BB01000840
:1000B000BB010008BB010008BB010008BB01000830
:1000C000BB010008BB010008BB010008BB01000820
:1000D000BB010008BB010008BB010008BB01000810
:1000E000BB010008BB010008BB01000800F002F8DA
:1000F00000F047F80AA090E8000C82448344AAF17B
:100100000107DA4501D100F03CF8AFF2090EBAE878
:100110000F0013F0010F18BFFB1A43F0010318473B
:10012000D42F0000F42F0000103A24BF78C878C103
:10013000FAD8520724BF30C830C144BF04680C60ED
:10014000704700000023002400250026103A28BF35
:1001500078C1FBD8520728BF30C148BF0B60704739
:10016000662902F06687002070471FB500F02AFB61
:1001700004000020002102F0F3FBE0601FBD10B579
:1001800010BD00F01FFC1146FFF7EFFF02F002FB6D
:1001900000F03DFC03B4FFF7F2FF03BC00F080FC6D
:1001A0000948804709480047FEE7FEE7FEE7FEE70B
:1001B000FEE7FEE7FEE7FEE7FEE7FEE70448054947
:1001C000054A064B7047000057260008ED0000085E
:1001D0005801002058070020580300205803002031
:1001E0000FB41CB5074B06AA7B44694600900598DE
:1001F00000F0CFFA0020694600F0DEFA1CBC5DF882
:1002000014FB0000CD0500002DE9F0474FF0000A77
:1002100089460446C0F820A02046E16888470028A7
:1002200076D0252806D0D4E901219047206A401CC9
:100230002062F1E7E168204600258847C4F81CA049
:1002400006460027C4F818A02A2E09D0304602F02E
:1002500099FA38B304EB8708303EC8F8186019E003
:1002600059F8041B204604EB87029161E168884736
:10027000012F064618D1E069002820DA25F0200574
:100280001DE0D8F8180000EB800006EB4000303885
:10029000C8F818002046E1688847064602F072FA5E
:1002A0000028EED1012F0AD02E2E08D12046E16879
:1002B00088477F1C0646022F45F02005C4DBA06955
:1002C000002803DA404245F00105A061E80701D0AB
:1002D00025F01005B6B1A6F14100192802D8203644
:1002E00045F400654A463146204625604D46FFF7F5
:1002F00037FF58B1012806D0ED1D25F0070000F1A9
:10030000080989E704E005F1040985E730468AE732
:10031000206ABDE8F0874FF0000200B5134694460E
:100320009646203922BFA0E80C50A0E80C50B1F14D
:100330002001BFF4F7AF090728BFA0E80C5048BF61
:100340000CC05DF804EB890028BF40F8042B08BFFF
:10035000704748BF20F8022B11F0804F18BF00F8FB
:10036000012B704770477047704770472DE9FF4F6A
:100370000C461E464FF0FF378BB0D2E90001DDF886
:1003800060800A908A46C1F30A5505B93D460021AE
:1003900008464FF00000BAF1000F00F4400005DA03
:1003A00000EB80004FF4400101EA50004FEA905901
:1003B000B9F1010F00DDB9460A9850EA4A000ED0A3
:1003C00044F61050A5F2FF3545432F14B8F1000F45
:1003D0001ED07542291E1EDDC9F100021CE0B8F1D5
:1003E000010F4FF0000001D0302103E0F24305E09F
:1003F0002154401CB042FBDB304600220021215436
:100400000B99C1F80880C1E900200FB0BDE8F08F5A
:10041000BD1B6D1CDEE74A4600DA694206A800F003
:100420005BFA06AB93E8070003AB83E8070050468E
:100430000A9900F03CFB8DE80700A0F500501F383A
:1004400000900398002D0ADD42F21F014A4608443D
:10045000002303A90390684600F0A5FD09E0A0F57C
:1004600000504A461F38002303A90390684600F055
:10047000AFFD8DE807000004000C03D04FF0FF3003
:10048000410800E01046B8F1000F03D000220092AE
:1004900015461EE0751E05D400F098F930326255FD
:1004A0006D1EF9D5B3460122084302D000227F1CFD
:1004B00004E02078302801D100227F1E002A09970D
:1004C00084D01DE0112D07DA00F080F9303262553A
:1004D0006D1C50EA0102F5D1084302D00098C8B162
:1004E0000EE00021681E05E0235C625C6354225428
:1004F000401E491C8142F7DBAB46A81B401E0990F9
:10050000002004F80B000B98099AC0F80880C0E995
:10051000002B7AE711264FF0000857E72DE9F04F3E
:1005200088460446D21D22F0070191B0D1E90001AE
:10053000CDE90A0102F002F902460B98C00F01D082
:100540002D2007E02068810701D52B2002E0202123
:1005500001EAC000032A099001D0072A05DB0346FF
:100560004146204600F078F90BE12078800601D55D
:10057000E06900E00620B8F1650F814606D0B8F1C9
:10058000660F18D0B8F1670F70D131E00020B9F1D3
:10059000110F009001DB112301E009F101030AAA08
:1005A00001A90CA8FFF7E2FEDDE90C70002609F1B5
:1005B0000105834647E001204B4600904FF000477D
:1005C0000AAA01A90CA8FFF7D1FEDDE90DB00C992C
:1005D0005D46002610B909F101000D18B9EB0500C0
:1005E00003D4C0F1FF3609F10105A5EB09002BE0AA
:1005F000B9F1010F01DA4FF001090020B9F1110F33
:100600000090484601DD112300E003460AAA01A933
:100610000CA8FFF7ABFEDDE90C704D4600268346C3
:10062000207800070AD4AB4500DA5D4601A8012D09
:1006300004DD411911F8011C302907D04F4502DAB9
:1006400017F1040F04DA012082460FE06D1EEEE779
:10065000002F02DCED1B3E4403E0781CA84200DDC5
:100660007D1CB81B00F1010A4FF0004720780007FD
:1006700003D4AA4501DB4FF0FF3A0021B7F1004F48
:100680000DF143088DF8431024D002202B23002FB6
:1006900001DA7F422D230A21021EA0F1010000DCB5
:1006A0005FB197FBF1FC97FBF1F201FB1C7C174655
:1006B0000CF1300C08F801CDEEE7A8F10100037051
:1006C0002188090501D5452100E06521A0F1010837
:1006D00000F8011C09980FA9A1EB0807FF1D00B144
:1006E0000120411901EBEA70A1693844081A401E43
:1006F000A0612078C00602D42046AFF3008009989C
:1007000028B1D4E901219047206A401C206220785A
:10071000C00622D52046AFF300801EE0002E04DB89
:10072000B34502DD01A8805D00E03020D4E901215D
:100730009047206A401C2062761CAAF101005FEA03
:10074000000A0AD100F03EF8C0680168405CD4E9B4
:1007500001219047206A401C2062281EA5F1010556
:10076000DCDC07E0D4E9012118F8010B9047206A8E
:10077000401C2062381EA7F10107F3DC2046AFF3CE
:100780000080032011B041E601694A1C026108782B
:10079000704700B58FB0CDE90131002105910549C1
:1007A0007944CDE9031011466846FFF72DFD0FB0DF
:1007B00000BD0000E5FFFFFF0A6802F8010B0A60B8
:1007C00070470000004870471801002030B5B0F1B4
:1007D0000A024FEA900E71F100034EEA817EB0EBFF
:1007E0000E0061EB91014FEA101E4EEA017E10EB04
:1007F0000E0041EB11114FEA102E4EEA016E10EB84
:100800000E0041EB11214FEA104E4EEA014E10EB63
:100810000E0041EB1141401841F100014FEAD000B8
:1008200040EA41704FEAD10110EB80054FEA8104A4
:1008300044EA907444EB01046D1944EB0404521B28
:10084000A3414FF0000348BF0A3200D530BD401C21
:1008500041F1000130BD00002DE9F0411F46044682
:1008600003260168072A01F4006004DB08B116A51D
:1008700005E016A503E008B115A500E015A521F0D7
:1008800010002060A069C01EA0610FB1401EA061D1
:100890002046AFF300804FB1D4E90121384690479C
:1008A000206A401C2062C01C206206E0206AFAE731
:1008B000D4E9012115F8010B9047761EF8D22046A5
:1008C000AFF30080BDE8F0814E414E006E616E00D6
:1008D000494E4600696E66002DE9F047814616468E
:1008E0008AB0354878440DC88DE80D003248784408
:1008F000801C03AC0DC884E80D0041F69B30084411
:10090000372190FBF1F290FBF1F5A5F1800501FB99
:1009100012041B3C02D56442012000E00020DFF8F5
:1009200098A080460027FA44AAF1BE0A0EE0E0072C
:100930000AD03246684607EB470101230AEB8101E2
:1009400000F046FB8DE8070064107F1C002CEED100
:10095000194F7F44AE3F19E0E80715D007EB0410AC
:100960000DF1180A90E80E008AE80E00C068F04207
:1009700001D1981908903246012306A903A800F076
:1009800027FB03AB83E807006D10641C002DE3D147
:100990004FF0010332466946B8F1000F03A802D0B8
:1009A00000F001FB01E000F013FBC9E90001C9F808
:1009B00008200AB0BDE8F087F4270000004870471F
:1009C000F80000207546FFF7F9FFAE4605006946BE
:1009D000534620F00700854618B020B5FFF7EEFB20
:1009E000BDE820404FF000064FF000074FF0000830
:1009F0004FF0000B21F00701AC46ACE8C009ACE8B1
:100A0000C009ACE8C009ACE8C0098D46704710B514
:100A10000446AFF300802046BDE81040FFF7BABBA4
:100A20004FF0013C50F8042B51F8043B9A4221D17D
:100A3000A2EB0C03934313EACC1317D150F8042B09
:100A400051F8043B9A4215D1A2EB0C03934313EAED
:100A5000CC130BD150F8042B51F8043B9A4209D126
:100A6000A2EB0C03934313EACC13DBD04FF000004E
:100A7000704700BFD01A01BAB1FA81F101F0180134
:100A800022FA01F0CB40C1F12001DBB2C0B2C01AA2
:100A90002CFA01F3D11A914311EAC311E6D1704740
:100AA00001491820ABBEFEE72600020070475FEA4E
:100AB000400C08BF91F0000F4FEA8C234FEAC1228F
:100AC00043EA51514FEA1C5018BF00F5F0404FEA7D
:100AD000300018BF41F000415FEA6C5C00F02980F3
:100AE000BCF1FF3F08BF40F080407047130C06BFC9
:100AF00012044FF0100C4FF0000C130E04BF120242
:100B00000CF1080C130F04BF12010CF1040C930F2D
:100B100004BF92000CF1020CD30F04BF52000CF181
:100B2000010C11464FF00002A0F11F00A0EB0C00D9
:100B3000704711F0004F08BF704731F000413FF49B
:100B4000D5AF0B0C06BF09044FF0100C4FF0000C92
:100B50000B0E04BF09020CF1080C0B0F04BF0901B6
:100B60000CF1040C8B0F04BF89000CF1020CCB0FAD
:100B700004BF49000CF1010CCCF12003A0EB0C00E8
:100B800022FA03F302FA0CF241EA030100F1010038
:100B9000704720F07F4C80EA030023F07F47ACEBE6
:100BA000070303F57C5300F0004003F1FF032DE938
:100BB00080494FEA154B09B44FEA144325EA0B4E1E
:100BC00024EA03480FF2042606EB132749083E786F
:100BD0005FEA320203FB0667C7F5000707FB06F66C
:100BE0004FEA54374FEAD64606F1020607FB066C79
:100BF000CCF1005C4FEA1C472CEA074C07FB06F4DB
:100C00000CFB06F504EB15464FEA961634BF0020A0
:100C10004FF000404FEAD13706FB07FC4FEA1C4C6F
:100C20000CFB0BF7D21B03FB0CF761EB07010CFB72
:100C30000EF7B0EB074072EB17420CFB08F734BF1E
:100C4000A2EB0742B2EB074261EB17414FEA0C44BB
:100C50004FEA910706FB07FC4FEA1C4C0CFB0BF715
:100C6000B0EBC74072EB573203FB0CF734BFA2EB7B
:100C7000C742B2EBC74261EB57310CFB0EF7B0EB4A
:100C8000C70072EB57720CFB08F734BFA2EBC70228
:100C9000B2EBC70261EB5771039F4FEA816141EAF2
:100CA000921104EBCC044FEAD1374FEA826206FB83
:100CB00007FC42EA90124FEA80604FEA1C4C0CFBA2
:100CC0000BF7D21B03FB0CF761EB07010CFB0EF7D4
:100CD000B0EB074072EB17420CFB08F734BFA2EBF6
:100CE0000742B2EB074261EB17414FEA8C554FEADE
:100CF000910704EB9C2406FB07FC4FEA1C4C0CFB01
:100D00000BF7B0EBC74072EB573203FB0CF734BF65
:100D1000A2EBC742B2EBC74261EB57310CFB0EF7B7
:100D2000B0EBC70072EB57720CFB08F734BFA2EBB5
:100D3000C702B2EBC70261EB577115EB4C254FEAC6
:100D4000816141EA92114FEA82624FEAD13742EA69
:100D5000901206FB07FC44F100044FEA80604FEA62
:100D60001C4C0CFB0BF7D21B03FB0CF761EB0701D0
:100D70000CFB0EF7B0EB074072EB17420CFB08F7C9
:100D800034BFA2EB0742B2EB074261EB174115EB10
:100D90001C154FEA813141EA92414FEA823242EA20
:100DA00090424FEA80304FEA0C7644F1000448EA62
:100DB00003434EEA0B484FF0000EB2EB080C71EB08
:100DC000030724BF624639464EEB0E0E4FF0000B70
:100DD0000018524149414BEB0B0BB2EB080C71EB85
:100DE00003077BF1000B24BF624639464EEB0E0E23
:100DF0004FF0000B0018524149414BEB0B0BB2EB8B
:100E0000080C71EB03077BF1000B24BF62463946E7
:100E10004EEB0E0E51EA020718BF46F0010616EB24
:100E20000E7655F1000254F1000103D5BDE88901A9
:100E3000BDE80088BDE88901BDE80048B619524107
:100E400041EB0101A3F10103704780807F7E7D7C2F
:100E50007B7A7978777676757473727171706F6E4C
:100E60006E6D6C6C6B6A6A696868676666656464F7
:100E7000636362616160605F5F5E5E5D5D5C5C5B81
:100E80005B5A5A59595858575756565555555454F0
:100E9000535352525251515050504F4F4F4E4E4D4E
:100EA0004D4D4C4C4C4B4B4B4A4A4A49494948489A
:100EB00048474747474646464545454444444443DA
:100EC00043434342424242414141002B9C4630D47D
:100ED00077002BD01CB54FEA370703B44FF0100052
:100EE0004FF01001BAF1000F06D0BCF1000FDCBFCB
:100EF00040F0080040F008014FF000000FBCBDE8D2
:100F000010400BF1010BBBF1010F08BF5FEA17079F
:100F100022BF12F1010211F101014FF0004143F132
:100F2000000300F0004043EA00007047F9D357087F
:100F3000D0E746EA064613F1400F4FEA16461FDD9A
:100F400013F1200FDFBF16430A46002120335B4216
:100F5000BED0C3F1200746EA064602FA07F74FEA79
:100F6000164646EA0706C3F1200722FA03F201FA01
:100F700007F721FA03F14FF0000342EA0702A7E75F
:100F800046EA020646EA06464FEA164646EA0106E1
:100F9000BCBF46EA0646360C4FF000034FF0000295
:100FA0004FF0000194E72DE9804C9A46934670B4C7
:100FB00091E8380007C831EA400C48BF34EA430CD6
:100FC00003D5FFF7E6FDFFF780FFF0BCBDE8008C1E
:100FD0002DE9804C9A46934670B491E8380007C8D2
:100FE00010F0804F08BF13F0804F03D100F005F8D8
:100FF000FFF76BFFF0BCBDE8008C20F07F4780EA74
:10100000030023F07F4C07EB0C03A3F57C5300F0A7
:101010000040A3F1FE0392F0000F00F0B38095F0C2
:10102000000F00F077802DE901494FEA11404FEAA7
:10103000144621EA004800FB06FC24EA064708FBA8
:1010400006F607FB08F800FB07F718EB06484CEB21
:10105000164C4FEA124B18EB07484FEA15464CEB7B
:10106000174022EA0B4E0BFB06FC25EA06470EFB57
:1010700006F607FB0EFE0BFB07F71EEB064E4CEBCE
:10108000164C4FF000061EEB074E4CEB174B18EBBF
:101090000B0840F1000018EB0E0B58EB000840F174
:1010A00000008F1A4FF000013CBFC943661B14BFFC
:1010B000B5EB040C00213CBFC943F61B4FEA1744B3
:1010C0004EEA8E0E27EA04454FEA1C4704FB0762EE
:1010D0002CEA074C05FB07F70CFB05F604FB0CFCA0
:1010E00016EB074642EB174216EB0C4642EB1C424E
:1010F0001BEB060658EB0202414146EA9E0601D56B
:10110000BDE80189B619524141EB0101A3F1010388
:10111000BDE801894FEA14454FEA114724EA054624
:1011200021EA074C05FB07F406FB07F70CFB06F169
:1011300005FB0CFC11EB074144EB17444FEA124747
:1011400011EB0C4144EB1C4422EA074C05FB07F26F
:1011500006FB07F70CFB06F605FB0CFC16EB074637
:1011600042EB174216EB0C4642EB1C456A1854F151
:10117000000148BF7047B619524141EB0101A3F18C
:101180000103704795F0000F37D04FEA11424FEA44
:10119000144721EA024624EA074C02FB07F106FB4A
:1011A00007F70CFB06F402FB0CFC14EB074441EBC5
:1011B00017414FEA154714EB0C4441EB1C4125EA5B
:1011C000074C02FB07F506FB07F70CFB06F602FBD4
:1011D0000CFC16EB074645EB174516EB0C4645EBAA
:1011E0001C42121951F1000148BF7047B619524113
:1011F00041EB0101A3F1010370474FEA14454FEAA7
:10120000114724EA054621EA074C05FB07F106FBD6
:1012100007F70CFB06F24FF0000605FB0CFC12EB87
:10122000074241EB174112EB0C4251EB1C4148BF06
:101230007047921841EB0101A3F101037047FEE7EB
:1012400010B50022012100F087F8BDE8104005200C
:1012500000F05CB910B504460298216022716371F8
:10126000A0712820A0720620E0710C2020721420AA
:1012700060720820E072322000F048F90022332129
:10128000204600F069F800223321204600F064F87F
:10129000052000F03BF900223221204600F05CF8E6
:1012A000052000F033F900222021204600F054F8F8
:1012B000052000F02BF9E1790022204600F04CF8DF
:1012C000217A0022204600F047F8617A0022204669
:1012D00000F042F8A17A0022204600F03DF80022FA
:1012E0000121204600F038F820460022BDE81040D9
:1012F000022100F031B830B4447900238C4201D887
:10130000641EE1B28479944201D8641EE2B232B123
:10131000012A06D0022A06D0032A06D007E00B468F
:1013200005E0403102E0143100E05431CBB230BC72
:1013300043F08001002200F00FB8012200F00CB849
:1013400070B50C46054603E02846641CFFF7F5FF20
:1013500021780029F8D170BD7CB506460807040E37
:10136000F07A01F0F00518B145F0080544F00804E2
:10137000012A01D02AB108E045F0010544F001043A
:1013800003E025F0010524F0010445F004008DF888
:101390000400012000F0BAF88DF8055044F0040074
:1013A0008DF80600012000F0B1F84FF47A708DF846
:1013B000074000903179042301AA306800F07CFADC
:1013C0007CBD00002DE9F04700254FF0010A4FF4E5
:1013D0008049DFF88480214C00F0A4F9206100F0FE
:1013E000A1F94F46606102E000F09CF96061394666
:1013F000404600F08DF920B9D4E90401801C8842F0
:10140000F2D8282001F0A0FAB946394647464046AE
:1014100000F07EF90028C5F107010AFA01F019D0A1
:101420003043C6B200F07EF9C4F8100000F07AF93B
:1014300060614946384600F06BF920B1D4E90401F7
:10144000801C8842F2D86D1CEDB2082DC4D3304602
:10145000BDE8F0878643E5E7000C0140000000206E
:101460002DE9FF41002502204FF480444FF0010890
:10147000CDE90250224ECDE900482F46694630465C
:1014800000F056F800222146304600F046F91420BC
:1014900000F03CF801222146304600F03EF91E20C3
:1014A00001F052FACDE901786946304600F040F883
:1014B000282001F049FA2146304600F029F940B9C8
:1014C000502001F041FA2146304600F021F900B1E8
:1014D000012500F027F90B4FC7F8100000F022F9A2
:1014E00078612146304600F013F920B1D7E90401B4
:1014F000801C8842F2D804B02846BDE8F081000084
:10150000000C0140000000207047000070B5044648
:1015100000F008F90546601C02D004480078044435
:1015200000F000F9401BA042FAD370BD1800002063
:101530002DE9F84FDFF8B8910024A9F1040B2346F8
:101540000F2709F1040AABF1040EC9E00125A540FB
:101550002A40AA427DD1674ED1F804C0ACEB060800
:10156000B44532D014DCBCF1030F3AD009DCBCF135
:10157000000F2AD0BCF1010F1CD0BCF1020F31D1F9
:101580001DE0BCF1110F17D0BCF1120F2AD119E0E8
:10159000B8F5881F19D006DCB8F5803F15D0B8F52E
:1015A000801F1FD111E0B8F5001F0ED0B8F5041F41
:1015B00018D10AE0CB6815E0CB681B1D12E0CB68A0
:1015C00008330FE0CB680C330CE08B682BB1012B98
:1015D0004FF0080303D0456104E0042302E00561F5
:1015E00000E00023FF2A01D8064601E000F10406CE
:1015F0004FEA840501D9A5F12005D6F8008007FA45
:1016000005FC28EA0C0803FA05F548EA0508C6F8BF
:1016100000804D68ED0062D5374DAE6946F0010699
:10162000AE61AD6924F0030605F001050095334D68
:1016300006EB050CDCF80850A607360F07FA06F88B
:1016400025EA0805DFF8B880404503D14FF00008CF
:1016500017E044E0DFF8AC80404502D14FF00108CC
:101660000FE0DFF8A480404502D14FF0020808E007
:10167000DFF89880404502D14FF0030801E04FF0B9
:10168000040808FA06F848EA0508CCF808804D680E
:10169000D9F80060ED024D4601D5164300E09643AF
:1016A0002E604D68DAF80060AD02554601D516434C
:1016B00000E096432E604D68DBF80060AD035D46A8
:1016C00001D5164300E096432E604D68DEF80060B9
:1016D000ED03754601D5164300E096432E60641C69
:1016E0000D682A46E5407FF431AFBDE8F88F000071
:1016F00008040140000011100010024000000140E9
:1017000000080140000C014000100140001401409D
:101710008068084000D0012070470AB1016170471D
:101720000904FBE7014880687047000018000020AA
:1017300070B5040025D094F83D00002520B984F848
:101740003C50204600F04EF9242084F83D002068EB
:10175000016821F0010101602068016841F4004145
:1017600001602068016821F40041016000F088FAFE
:101770004D4A6168914201D84C4900E04C49884289
:1017800001D2012070BD4B492368B0FBF1F15E68C6
:1017900026F03F060E435E606368934206D94FF41D
:1017A000967359434FF47A73B1FBF3F12368491CE4
:1017B0001E6A26F03F06314319626168914210D8D3
:1017C0004900401EB0FBF1F2521CC2F30B02042A86
:1017D00001D2042022E0B0FBF1F0401CC0F30B006A
:1017E0001CE0A268F2B301EBC10303EB0116431E38
:1017F000B3FBF6F35B1C43F480431B0549D092B363
:1018000001EBC10202EB0111401EB0FBF1F0401CE4
:10181000C0F30B0040F4804040F400402168CA69E6
:101820004CF6FF739A431043C861D4E90710014393
:101830002068026822F0C00211430160D4E903016C
:1018400001432068826848F2FF339A431143816064
:10185000D4E9050108432168CA6822F0FF02104359
:10186000C86001E00EE016E02068016841F0010167
:1018700001602564202084F83D00256384F83E50F3
:10188000002070BD01EB4106431EB3FBF6F35B1C69
:10189000B3E70120C2E701EB4101401EB0FBF1F0CC
:1018A000401CC0F30B00B7E7A086010080841E0037
:1018B00000093D0040420F002DE9F84F1F469046B9
:1018C0008A460446DDF82890FFF72CFF054694F879
:1018D0003D0020287FD11923012240492046009550
:1018E00000F046FD002876D194F83C00012872D023
:1018F000012084F83C0020680168C90703D1016811
:1019000041F0010101602068016821F4006101607B
:10191000212084F83D00102084F83E000026266433
:10192000C4F824806785608D20852D48E0622B46B1
:101930004A465146204600F0A1FC90B92068416912
:101940008069009036E02A464946204600F0B6FD00
:1019500050B1206C042804D12068016841F4007162
:1019600001600120BDE8F88F606A21680078086195
:10197000606A401C6062618D491E6185218D491E2F
:1019800089B2218522685369DB435B070BD451B1CF
:1019900000781061606A401C6062608D401E608546
:1019A000208D401E20852A464946204600F0B4FC82
:1019B0000028CED1208D0028C5D154F83D0B0168F8
:1019C00041F400710160202004F81E09E677667773
:1019D0000020C7E7FFE70220C4E700000200100074
:1019E0000000FFFF10B586B0002100910191029127
:1019F000039100680F4988421AD10F4CA06940F04A
:101A00000800A061A069694600F008000490C020A9
:101A1000009012200190032003900848FFF788FDF2
:101A2000E06940F40010E061E06900F40010049007
:101A300006B010BD0054004000100240000C0140F0
:101A400002488168027811448160704718000020C4
:101A5000074810B5016841F010010160032000F053
:101A600067F80F2000F006F800F024F8002010BD01
:101A70000020024070B50D4D04464FF47A7128786D
:101A8000B1FBF0F00A490968B1FBF0F000F0BEFAD2
:101A900048B9102C07D200222146501E00F028F829
:101AA00000206C6070BD012070BD00001800002097
:101AB000240000200C4808B5816941F001018161D2
:101AC000816901F001010091C16941F08051C1615A
:101AD000C06900F0805000900448416821F0E06146
:101AE00041F00071416008BD00100240000001405B
:101AF000F0B40E4B1B680C46C3F30223C3F1070579
:101B0000042D00D90425191D072901D2002300E066
:101B1000DB1E012606FA05F1491E214099409E4030
:101B2000761E16403143F0BC00F01CBE0CED00E008
:101B3000064900F0070208684FF6FF03184040EA24
:101B40000220034A10430860704700000CED00E0DB
:101B50000000FA052DE9F0470F46050061D0434E1D
:101B6000306800F00700B84209D2306820F0070062
:101B700038433060306800F00700B84251D128681F
:101B80003B4C810712D5400703D5606840F4E06004
:101B900060602878000703D5606840F4605060609A
:101BA0006068A96820F0F000084360602878C007EA
:101BB00028D06868012810D02168022810D0890731
:101BC00000292EDA616821F0030101436160FFF70B
:101BD000A9FD804641F288390DE021688903EFE7CD
:101BE0008901EDE7FFF79EFDA0EB0801494502D909
:101BF0000320BDE8F0876068696800F00C00B0EB76
:101C0000810FEFD1306800F00700B8420BD930687F
:101C100020F0070038433060306800F00700B84219
:101C200001D00120E5E72878400705D56068E9681C
:101C300020F4E060084360602878000706D56068FB
:101C4000296920F4605040EAC100606000F028F883
:101C50006168084AC1F30311515CC8400649086035
:101C600006480068FFF706FF0020C2E70020024098
:101C70000010024048300008240000201C00002012
:101C80000448054900684968044AC1F30221515CCF
:101C9000C84070472400002000100240583000085F
:101CA0000E4A51680E4801F00C03042B11D0082B8A
:101CB0000FD10C48C1F38343C903C05C0AD55168F6
:101CC000084AC1F34041921E515C054A5043B0FBA3
:101CD000F1F070470449484370470000001002408B
:101CE00000127A003830000800093D002DE9F84F55
:101CF000040070D02078C04DC00749D06868C0F398
:101D00008100012807D06868C0F38100022809D14A
:101D10006868C00306D52868800339D56068002844
:101D2000E7D035E06068B0F5803F0BD010B1B0F57A
:101D3000A02F11D0286820F480302860286820F473
:101D4000802002E0286840F480302860606890B10C
:101D5000FFF7E8FC06460AE0286840F48020286087
:101D6000F0E700BFFFF7DEFC801B642873D828680B
:101D70008003F7D50CE0FFF7D5FC064605E000BF71
:101D8000FFF7D0FC801B6428F0D828688003F7D4C4
:101D900020789A4E80074FF001094FF0000839D59E
:101DA000686810F00C0F07D06868C0F38100022843
:101DB00009D16868C00306D42868800714D5206953
:101DC000012808D110E02069B0B1C6F80090FFF7F3
:101DD000A9FC074605E00AE1FFF7A4FCC01B0228A6
:101DE000C4D828688007F7D52868616920F0F80012
:101DF00040EAC10028600DE0C6F80080FFF792FCC1
:101E0000074604E0FFF78EFCC01B022823D8286891
:101E10008007F7D4207800072CD57948A169D9B17B
:101E2000C0F80090FFF77EFC074604E0FFF77AFC5D
:101E3000C01B02280FD8686A8007F7D571484FF495
:101E4000FA510068B0FBF1F0009000BF0098411E0D
:101E50000091FAD20EE080E0C0F80080FFF762FC4B
:101E6000074604E0FFF75EFCC01B022875D8686ACD
:101E70008007F7D42078400760D5E8690027C000C4
:101E800008D4E86940F08050E861E869012700F073
:101E9000805000905C480168C90513D401688346EE
:101EA00041F480710160FFF73DFC824606E000BF0F
:101EB000FFF738FCA0EB0A0064284ED8DBF80000DE
:101EC000C005F5D5E06801280AD008B1052813D06F
:101ED000286A20F001002862286A20F0040002E04D
:101EE000286A40F001002862E06841F2883B98B11E
:101EF000FFF718FC82460BE0286A40F004002862D5
:101F0000EEE700BFFFF70EFCA0EB0A0159455AD8D7
:101F1000286A8007F6D50CE0FFF704FC824605E04E
:101F2000FFF700FCA0EB0A0159454CD8286A80074E
:101F3000F6D41FB1E86920F08050E861E06988B309
:101F40006968C1F38101022944D00228C6F8608083
:101F500004D0FFF7E7FB044638E034E0FFF7E2FB8C
:101F6000074604E0FFF7DEFBC01B02282BD82868D9
:101F70008001F7D4206AB0F5803F05D16868A16878
:101F800020F4003008436860D4E908010843696818
:101F900021F4741108436860C6F86090FFF7C2FB33
:101FA000044606E025E000BFFFF7BCFB001B02284B
:101FB00009D828688001F7D51BE000BFFFF7B2FB06
:101FC000001B022802D90320BDE8F88F2868800191
:101FD000F4D40EE00128F7D06868226A00F480315A
:101FE000914204D1616A00F47010884201D001204E
:101FF000EAE70020E8E7000000100240000042424B
:1020000080044242240000200070004010B5401EB1
:10201000B0F1807F01D3012010BD4FF0E02460615A
:102020000F21601700F09EFB0020A06107202061B7
:10203000002010BD70B590F83C20012A26D0012464
:1020400080F83C40022280F83D2003685A689D6871
:1020500022F070060A6832435A600D4B02689A42B9
:1020600008D0B2F1804F05D00A4B9A4202D00A4BF9
:102070009A4204D1496825F080031943916080F8A1
:102080003D40002180F83C10084670BD022070BD24
:10209000002C0140000400400008004010B504007E
:1020A00003D094F83D0010B107E0012010BD0020DE
:1020B00084F83C00204600F01FF8022084F83D0020
:1020C000211D206800F0C8FA012084F8460084F839
:1020D0003E0084F83F0084F8400084F8410084F812
:1020E000420084F8430084F8440084F8450084F8F2
:1020F0003D00002010BD000008B500680649884278
:1021000008D10648C16941F00401C161C06900F00D
:102110000400009008BD00000008004000100240CC
:1021200090F83D10012901D001207047022180F86C
:102130003D1000680B49884208D0B0F1804F05D0AF
:102140000949884202D00949884204D1816801F0D6
:102150000701062903D0016841F001010160002058
:1021600070470000002C01400004004000080040BF
:1021700070B5044690F83C000025012817D00126D0
:1021800084F83C60022084F83D002068826822F0D8
:10219000770222F47F4282600868502838D00DDC34
:1021A00020284FD005DC90B3102811D14AE002203E
:1021B00070BD302846D040280AD13BE060282FD09F
:1021C00070280DD0B0F5805F03D0B0F5005F12D05D
:1021D000012584F83D60002084F83C00284670BD4D
:1021E000CB68D1E90121206800F072FA206881688B
:1021F00041F0770109E0CB68D1E90121206800F0C6
:1022000067FA2068816841F480418160E1E719E064
:10221000CA684968206800F06DFA5021206806E01D
:10222000CA684968206800F076FA6021206800F0EA
:1022300059FACEE7CA684968206800F05BFA402185
:102240002068F4E7226801461046F0E7FEE70168DF
:102250004A69D24352050FD46FF480624A6100216B
:1022600040F8301F202242738173026942F0040259
:10227000026101730120704700207047F8B50446E1
:10228000C06A1E460D461746082807D0012805D00B
:1022900010F5803F02D0206B122804D1206801681D
:1022A00041F480710160134600224FF00111204675
:1022B000009600F05DF840B120680068C00502D5C6
:1022C0004FF4007020640320F8BD2069B0F5804F02
:1022D0000ED00620216800EAD51040F0F000086119
:1022E00033463A460B49204600F08AF878B902E0B6
:1022F00005F0FE0000E0E8B22168086105493346B8
:102300003A46891F204600F07BF80028DCD00120E7
:10231000F8BD00000800010070B516460D460446E1
:102320001EE02046FFF793FF08B1012070BD681C36
:1023300016D0FFF7F7F9801BA84200D885B92068AE
:102340004069C04340070BD5002044F8300F2021DE
:102350006173A073216941F0200121612073E4E7DA
:1023600020684069C0434007DBD4002070BD0000F6
:102370002DE9F047984617460D460446C1F3074637
:10238000DDF820902AE000BFB8F1FF3F26D0FFF72C
:10239000C9F9A0EB0901414502D8B8F1000F1DD1E0
:1023A0002068012E16D0806925EA00000004000C88
:1023B00012D00020B84211D1002044F8300F202163
:1023C0006173A073216941F0200121612073012014
:1023D000BDE8F0874069E7E70120EBE72068012EC0
:1023E0000AD0806925EA00000004000C06D0002015
:1023F000B842C9D00020EBE74069F3E70120F7E7D6
:102400002DE9F047984616460D4604464FF0000960
:102410004FF0200AC1F3074723E020684069C0431A
:10242000400515D42068016841F4007101602168FD
:102430006FF480604861C4F8309084F83DA084F85F
:102440003E90216C41F00401216484F83C9021E02D
:10245000701C06D0FFF766F9A0EB0800B04203D865
:1024600016B1012F1FD021E02068012F15D08069FF
:1024700025EA00000004000C18D000BF44F8309F8B
:1024800084F80DA084F80E90216941F020012161AB
:1024900084F80C900120BDE8F087406925EA00002F
:1024A0000004000CEAD12068406901E020688069DE
:1024B00025EA00000004000CAFD1ECE770B5164629
:1024C0000D4604461EE02046FFF7C1FE08B101207C
:1024D00070BD681C16D0FFF725F9801BA84200D8F4
:1024E00085B920684069C04300060BD5002044F838
:1024F000300F20216173A073216941F02001216117
:102500002073E4E720684069C0430006DBD4002064
:1025100070BD000070B586B0002418480094019486
:1025200002940394816941F020018161816901F085
:1025300020010491816941F008018161816901F004
:1025400008010491816941F00401816180690C4EA8
:1025500000F004004FF480450490002229463046E4
:10256000FFF7DBF801200095CDE90104022003907C
:1025700069463046FEF7DCFF06B070BD0010024031
:10258000000C014010B586B0002417480094019457
:102590000294039404941349059401604721C0E90F
:1025A00001144FF6FE71C0E903148461FFF776FD54
:1025B00008B172B6FEE74FF48050009069460A48B1
:1025C000FFF7D6FD08B172B6FEE7049404A90648E9
:1025D0000594FFF72FFD002801D072B6FEE706B084
:1025E00010BD000000080040A4000020FEE7FEE748
:1025F00070477047FFF724BA30B58FB0282168467E
:10260000FDF789FE14210AA8FDF785FE01210804C3
:10261000CDE900100024029402250491CDE9075071
:102620004FF4E01009906846FFF760FB08B172B6FE
:10263000FEE70F20CDE90A054FF48060CDE90C409C
:1026400002210AA80E94FFF785FA002801D072B67D
:10265000FEE70FB030BD7047F0B50268194B1A4C59
:102660001A4D4FF08047984205D0B84203D0A0429F
:1026700001D0A84203D122F070064A683243984242
:1026800005D0B84203D0A04201D0A84203D122F421
:102690004074CA6822434C6922F0800222430260DF
:1026A0008A68C2620A688262984201D1096901633C
:1026B000012141610169C90703D0016921F00101CC
:1026C0000161F0BD002C0140000400400008004002
:1026D00010B5846842EA032224F47F440A4322436B
:1026E000826010BD826822F070020A4342F0070146
:1026F0008160704710B5036A046A24F00104046223
:10270000846924F0F00444EA021423F00A020A4324
:102710008461026210BD10B5036A046A24F01004DB
:102720000462846923F0A00324F4704444EA023272
:1027300043EA01118261016210BDFEE7490050EADF
:10274000C12018BF04204A0D18BF40F0010040F21C
:10275000FF72B2EB515F08BF40F00200012808BFD2
:10276000052070470907090E002804DB00F1E0206E
:1027700080F80014704700F00F0000F1E02080F8AE
:10278000141D704730380A2801D2012070470020FC
:102790007047000008B5FFF75BF9FFF72DFFFFF763
:1027A000B9FE5F485D494FF4804201605D49416078
:1027B00000218160C0E9031241618161C161016250
:1027C000FEF7B6FF08B172B6FEE7FFF7DBFE0220A8
:1027D0005349009010234E2201F19C00FEF73AFD70
:1027E0004F485430FFF79CFC4D489C30FEF728FDC5
:1027F0004D4C40F6B83900BFFEF732FE00287CD0C1
:10280000FEF7E0FD2070FEF7DDFD6070FEF7DAFDFB
:10281000A070FEF7D7FDE070FEF7D4FD2071277899
:102820006678A578B9194A19E1780A4482426CD1D0
:10283000084600F035FADFF8F4A00022534600F015
:10284000D7F800F0A3F88046284600F01FFB414669
:1028500000F0BAFA8046A060304600F021FA00226B
:10286000534600F0C5F800F091F80546384600F0F0
:102870000DFB294600F0A8FAE0604FF08041404689
:1028800000F062FB00F074FA024625480B4628A1CE
:102890002838FDF7A5FCE06800F06AFA02462048F7
:1028A0000B4626A11438FDF79BFC1D48002211465B
:1028B0009C30FEF720FD1A49283901F1C400FEF7CB
:1028C0003FFD174800220B219C30FEF714FD1448F1
:1028D00043219C30FEF731FD1148012200219C303C
:1028E000FEF709FD0E49143901F1B000FEF728FD8D
:1028F0000B4801220B219C3000E006E0FEF7FBFCB8
:10290000074825219C30FEF718FD4846FEF7FEFDDE
:1029100003489C30FEF794FC6EE700000054004032
:1029200050000020A086010000000020000024408C
:1029300054454D503A20252E3266200048554D49C9
:102940003A20252E32662000044900220B685A6284
:1029500009684A6A8242FCD370470000A400002044
:1029600010B500290AD00878002807D00548784417
:10297000FEF756F8002801D0002010BD0248784428
:1029800010BD0000A60700009E07000021F00042D5
:10299000A2F16052B2F5801F01F0004328BFD2F1CE
:1029A0007F6C0BD95FEA001C43EAC20242EB507015
:1029B00018BF704728BF20F001007047B2F5801F94
:1029C000BCBF184670474FEA410C1CF5001F02D2ED
:1029D000084600F0B4BA70B500F075F9000000893F
:1029E000FFF7F6BF4FF00040A0F5800070470000F1
:1029F0002DE9C04130B4DFF8A0C23CEA111418BF81
:102A00003CEA131400F0EC8081EA03051CEA11147F
:102A100044EAD57418BF1CEA131500F0C780A4EB74
:102A200005044FF0004545EAC12145EAC32341EAC8
:102A3000505143EA525304F17F74994204F5003433
:102A40004FEAC0204FEAC22208BF904200F09C80AB
:102A50004FEA13650FF24016765D4FEA134506FB09
:102A600005F7C7F1807706FB07F74FEAD737A7FBD3
:102A700003687642C8F58038A7FB06CE38BFA8F1B8
:102A8000010807FB08E64FF0000EA6FB028CE6FBF0
:102A900003CEDCF1000CCEF1004E38BFAEF1010EDA
:102AA000A6FB0C584FF000074FF00005E6FB0E8721
:102AB000A1FB08C6A0FB07CE16EB0E0645F10005EC
:102AC000E1FB076515F1E04E7EBFA4F580345FEAB7
:102AD00046066D4116F1800745F100054FEA1727BC
:102AE0004FEA066647EA0567A6F1DE46B6F1805F63
:102AF0004FEA15251FD9384624F0010C05EBC471A7
:102B0000BCF1FE6F01EB0C1102D8F0BCBDE80081F6
:102B100024425CBF01F5801E9EEAC47F02D4F0BC53
:102B2000BDE80081244238D4F0BCA1F1C041BDE829
:102B3000004100F016B94FEAD22242EA43524FEA6E
:102B4000D323A7FB02864FEAD02040EA415007FB7F
:102B500003661EEA0E0F4FEAD12105FB026658BF3D
:102B6000A6EB0056B6EB00564FEA520E4EEAC37E75
:102B700018EB0E0E56EB530EBDD518EB02085E4156
:102B80007F1C55F10005B6E74FF480154FF00007A4
:102B90004FF000064FF00008ADE7F0BC4FF000002A
:102BA00001F1C04101F00041BDE8008111EA0C1FB4
:102BB0000CEA131500D00CE013EA0C1F00F025807E
:102BC0004FF00000F0BC81EA030101F00041BDE8D4
:102BD0000081F0BCBDE8004181EA030100F0C1B80A
:102BE000F0BCBDE8004170B500F06DF8097EFC3E18
:102BF00000F007B881EA03014FF0000001F0004146
:102C0000704781EA030100F0ACB8F0BCBDE80041B8
:102C10004FF0000021497047FFFDFBF9F7F5F4F292
:102C2000F0EEEDEBE9E8E6E4E3E1E0DEDDDBDAD867
:102C3000D7D5D4D3D1D0CFCDCCCBCAC8C7C6C5C4C5
:102C4000C2C1C0BFBEBDBCBBBAB9B8B7B6B5B4B3DC
:102C5000B2B1B0AFAEADACABAAA9A8A8A7A6A5A4C7
:102C6000A3A3A2A1A09F9F9E9D9C9C9B9A9999988B
:102C70009797969595949393929191908F8F8E8E2E
:102C80008D8C8C8B8B8A89898888878786858584BB
:102C900084838382828181800000FF070000F87FA7
:102CA000B0FA80F310FA03F10AD0C3F11D0303F563
:102CB00080634FEA41504FEA035202EBD121704743
:102CC0004FF0000070470EF1020E2EF0030E5EF87A
:102CD000046B364205D4012A43EB030515F5001FAA
:102CE00012D8012841EB010C1CF5001F0CD80ED1A5
:102CF0004FEAD17C15F5001F0CEB4C0C0CF1020CCB
:102D000008BF4CEBD37C04E04FF0080C01E04FEA25
:102D1000D37C0CEB4C0526FA05F606F00706B6F157
:102D2000040C06D20EEB860CBDE870404CF0010C92
:102D30006047DFE80CF0090B02024FF000414FF052
:102D40000000A1F5002170BD19461046012851EB85
:102D5000010418BFD4F5001484BF002001F0004125
:102D600070BD0808A0F500114FEA3101704700005E
:102D700043004FEAD30C4FEA3C0C43401FBF4007CF
:102D80000CF1605113F0FE4F70471CF0006F03D13F
:102D900000200CF0004170470CF0004343EA5070F3
:102DA00010B540EACC0000F084F800BF00000092AB
:102DB0004FEA0001FFF7D5BF4FF000414FF0000090
:102DC000A1F500217047000090EA010F48BF81F093
:102DD000004100F1C080421A3CBF801A89184FEAB6
:102DE000D0524FF07F4C1CEA410FA2EBD15318BFD9
:102DF0009CEA026F00F03B804FF0004C4CEA002050
:102E00004CEA012121FA03FC10EB0C0C1ED202F15A
:102E1000FF325FEA1C2040EBC25038BF70471CF005
:102E20007F0F4FEA400C18BFBCF17F4F38BF70478F
:102E3000C3F12003994008BF20F00100BCF17F4F8F
:102E400038BF7047A0F1C04000F079B84FEA3C00AD
:102E5000000A40EBC25028BF1CF0FF0F4FEA400CA5
:102E6000E6D018BFBCF17F4F38BF7047EAE79CEA55
:102E7000026F05D010EA5C0F08BF00F000407047F9
:102E800010B500F016F800BF64FBBE3EB0FA80F348
:102E900010FA03F2C3F19D030AD0D90501EB122009
:102EA000530638BF704700F1010008BF20F0010051
:102EB00070470EF1020E2EF0030E5EF8044B244212
:102EC00004D44FEA4102B2F17F4F11D84FEA4003D8
:102ED000B3F17F4F0CD80ED14FEAD07CB2F17F4FC7
:102EE0000CEB4C0C0CF1020C08BF4CEBD17C04E059
:102EF0004FF0080C01E04FEAD17C0CEB4C0324FAB4
:102F000003F404F00704B4F1040C06D20EEB840CB5
:102F1000BDE810404CF0010C6047DFE80CF00708FA
:102F200002024FF00040A0F5800010BD08464200AC
:102F300018BFD2F1807288BF00F0004010BDFF21A1
:102F400041EAD050C005704790EA010F48BF81F0B8
:102F500000413FF540AF421A04D882F00042A0EB96
:102F6000020011444FEAD0524FF07F4C1CEA410F4F
:102F7000A2EBD15318BF9CEA026F4AD04FF0004C2D
:102F80004CEA00204CEA012121FA03FCB0EB0C0CC6
:102F90000FD412F0FE0F36D05FEA4C001DD50012A0
:102FA00040EBC25038BF70471CF03F0F18BF70474E
:102FB0000BE0A2F101025FEA1C2040EBC25038BFD7
:102FC00070471CF07F0F18BF7047C3F12003994072
:102FD00014BF401E20F00100704780084FEA122302
:102FE00008BF7047B0FA80FCA2EB0C02CCF1280CB1
:102FF00060FA0CF093EA122F04BF00EBC250704746
:103000004FEAC3707047130A5FEADC1008BF7047CD
:10301000F6E79CEA026F04D010EA5C0F08BF0020BC
:10302000704710B5FFF745FF40DFF63E81F00040E6
:103030007047FDF773BA0102020304050607080989
:103040000A0B0C0D0E0F1010000000000000000015
:10305000010203040607080900000000010203043E
:1030600002400000000000A0000000000540000039
:10307000000000C8000000000C4000000000409C60
:1030800000000000194000000020BCBE000000004D
:1030900034400000BFC91B8E00000004B540000092
:1030A000504BCFD06607E2CF010000006C4100001A
:1030B0003E8251AADFEEA73401000000D942000091
:1030C000DCB5A0E23A301F97FFFFFFFFB4450000D8
:1030D000FD25A0C8E9A3C14FFFFFFFFFFF3F000090
:1030E0000000008000000000FF3F000000000080A2
:1030F000000000003031000800000020280000001F
:10310000280100085831000828000020300700007E
:10311000440100081C00000043000000F8FFFFFF0E
:103120000C0000000E0000000F0000002E00000048
:10313000000000000000000000000000000000008F
:10314000000000000000000001000000100000006E
:083150000000000000127A00EB
:04000005080000ED02
:00000001FF
